:0300000002067580
:0C067500787FE4F6D8FD7581550206BCC4
:10077F000A4C00000000000000000000011C0001F6
:10078F0023000122000A39000203040601070809A9
:10079F000A0346010203034300020303490B0C162D
:1007AF001424000A000000000000000000000000F8
:1007BF0000000000000006080000000000000138E3
:1007CF0000010E000B0F30313233343536373839E4
:1007DF0000012000011F00012100011A0F011B065B
:0607EF00011E14011D01B2
:040A3A007F967E0025
:100A3E00E4FDEDC39FE49E5012E4FCECC394787485
:0B0A4E0080948050030C80F30D80E7C3
:010A5900227A
:090A5A007F017E00120A3E7FC0FC
:100A6300C2B5C2B6C2B48F807F017E00120A3ED2E5
:070A7300B4120A3EC2B422D6
:1005CB00120A637F207E0012065E7F207E001206D9
:1005DB005E7F207E0012065E7F207E0012065E7F0D
:1005EB00207E0012065E7F207E0012065E7F207E3C
:1005FB000012065E7F207E0012065E7F207E0012B8
:10060B00065E7F207E0012065E7F207E0012065E55
:10061B007F207E0012065E7F207E0012065E7F200A
:10062B007E0012065E7F207E0012065E7F207E001B
:10063B0012065E7F207E0012065E7F207E00120671
:10064B005E7F207E0012065E7F207E0012065E7F9C
:03065B00207E00FE
:10065E00D2B5C2B6C2B48F807F017E00120A3ED2DE
:07066E00B4120A3EC2B422DF
:100999007F0F7E00120A3E7F38120A637F057E00B0
:1009A900120A3E7F0C120A637F057E00120A3E0F6F
:1009B900120A637F057E00120A3E7F01120A637FD5
:1009C900057E00120A3E7F80120A637F057E0002BF
:0209D9000A3ED4
:1002DE007F80120A637F327E0012065E7F307E00C0
:1002EE0012065EE51E75F00A84240FF8E6FF7E0006
:1002FE0012065EE51E75F00A84740F25F0F8E6FF0F
:10030E007E0012065E7F2D7E0012065EE51B75F0E6
:10031E000A84240FF8E6FF7E0012065EE51B75F0D8
:10032E000A84740F25F0F8E6FF7E0012065E7F2D1C
:10033E007E0012065EE51A75F00A84240FF8E6FFB9
:10034E007E0012065EE51A75F00A84740F25F0F829
:10035E00E6FF1206557F647E0012065E7F617E0008
:10036E0012065E7F797E0012065E7F3A7E001206CE
:10037E005EE51D75F00A84740F25F0F8E6FF7E0029
:10038E0012065E7FC0120A63120645E52075F00A5A
:10039E0084240FF8E6FF7E0012065EE52075F00A53
:1003AE0084740F25F0F8E6FF7E0012065E7F3A7E1B
:1003BE000012065EE52175F00A84240FF8E6FF7E32
:1003CE000012065EE52175F00A84740F25F0F8E63A
:1003DE00FF7E0012065E7F3A7E0012065EE51F75F6
:1003EE00F00A84240FF8E6FF7E0012065EE51F7504
:1003FE00F00A84740F25F0F8E6FF1206397F017EAD
:04040E0000020A3EA0
:10070100E51B14B40C00507590071775F003A4C5D0
:100711008325F0C5837302073B02076502073B028D
:10072100074E02073B02074E02073B02073B020747
:100731004E02073B02074E02073BE51A6420703D5B
:10074100751A01051BE51B640D70328011E51A64F1
:100751001F702A751A01051BE51B640D701F751B9F
:1007610001051E22E51E54037008E51A641E700D72
:0E0771008006E51A641D7005751A01051B222D
:1007F600E51B14B40C00506D90080C75F003A4C5ED
:100806008325F0C5837302083002085402083002BB
:100816000841020830020841020830020830020886
:1008260041020830020841020830E51A642070359A
:10083600751A01E51B640D702C800FE51A641F7094
:1008460024751A01E51B640D701B751B0122E51E3C
:1008560054037008E51A641E700B8006E51A641DC1
:060866007003751A012267
:1009DB00E51F643C702E0521F51FE521643C702456
:1009EB00F5210520E5206418701AF520051A120769
:1009FB0001E51B640D700D051E751B01E51E64647E
:050A0B007002F51E223F
:100A8E00758901758C3C758AAFD2AFD2A9D28C22F2
:10086C00209108120A3A209102051E209208120AC1
:10087C003A209202151E209311120A3A20930B056E
:10088C001BE51B640D7003751B0120940B120A3AB7
:10089C00209405051A1207F6209510120A3A209595
:1008AC000A0520E52064187002F520209610120A23
:1008BC003A20960A0521E521643C7002F521209727
:1008CC0011120A3A20970B051DE51D64087003757B
:0308DC001D0122D9
:1001A0007F80120A637F6E7E0012065E7F757E007E
:1001B00012065E7F6D7E0012065E7F3A7E0012069A
:1001C0005EE51C75F00A84240FF8E6FF7E00120637
:1001D0005EE51C75F00A84740F25F0F8E6FF120640
:1001E000477439251CF8E675F00A84240FF8E6FFF9
:1001F0007E0012065E7439251CF8E675F00A8474D8
:100200000F25F0F8E6FF7E0012065E7F3A7E0012B0
:10021000065E7446251CF8E675F00A84240FF8E69D
:10022000FF7E0012065E7446251CF8E675F00A840F
:10023000740F25F0F8E6FF12064E120A5A7F747EFC
:100240000012065E7F697E0012065E7F6D7E0012E0
:10025000065E7F657E0012065E7F2E7E0012065EC1
:10026000E51C25E02424F8E6FE08E6FF7C007D0A74
:10027000120944740F2FF8E6FF7E0012065EE51C9B
:1002800025E02424F8E6FE08E6FF7C007D0A12093A
:1002900044740F2DF8E6FF1206557F737E00120698
:1002A0005E7F687E0012065E7F657E0012065E7FBE
:1002B000697E0012065E7F6C7E0012065E7F647EA1
:1002C0000012065E7F2E7E0012065E744C440070A3
:0E02D000057F4EFE80047F597E0012065E22DE
:100412007F80120A637F6E7E0012065E7F757E0009
:1004220012065E7F6D7E0012065E7F3A7E00120625
:100432005EE52375F00A84240FF8E6FF7E001206BB
:100442005EE52375F00A84740F25F0F8E6FF1206C4
:100452004774432523F8E675F00A84240FF8E6FF73
:100462007E0012065E74432523F8E675F00A847452
:100472000F25F0F8E6FF7E0012065E7F3A7E00123C
:10048200065E74492523F8E675F00A84240FF8E61F
:10049200FF7E0012065E74492523F8E675F00A8491
:1004A200740F25F0F8E6FF12064E120A5A7F747E88
:1004B2000012065E7F697E0012065E7F6D7E00126C
:1004C200065E7F657E0012065E7F2E7E0012065E4D
:1004D200E52325E02408F8E6FE08E6FF7C007D0A15
:1004E200120944740F2FF8E6FF7E0012065EE52320
:1004F20025E02408F8E6FE08E6FF7C007D0A1209E2
:1005020044740F2DF8E6FF12061D7F017E00020AD9
:010512003EAA
:10000E00E522FB7A0060030200EB2091207F96FE32
:10001E00120A3E2091177439251CF8067439251CD6
:10002E00F8E6641870077439251CF8E4F620911D63
:10003E00120A3A2092177446251CF8067446251C9F
:10004E00F8E6643C70077446251CF8E4F62093101D
:10005E00120A3A20930A051CE51C640A7002F51C6C
:10006E0020940B120A3A209405151C751C0020953D
:10007E002F120A3A209529E51C25E02424F80806BB
:10008E00E618700106E51C25E02424F8E6FE08E6D5
:10009E00643D4E700BE51C25E02424F8E4F608F6CA
:1000AE0020961D120A3A209617744C251CF80674D9
:1000BE004C251CF8E664027007744C251CF8E4F617
:1000CE0030970302019F120A3A30970302019F05EF
:1000DE0022E5226402600302019FF52222EB6401F5
:1000EE004A600302019F2091207F96FE120A3E2055
:1000FE00911774432523F80674432523F8E66418F4
:10010E00700774432523F8E4F620911B120A3A2057
:10011E00921574492523F8067449643C440070070F
:10012E0074492523F8E4F6209310120A3A20930A14
:10013E000523E52364057002F52320940F120A3A75
:10014E002094091523E523700375230220952F12A1
:10015E000A3A209529E52325E02408F80806E61832
:10016E00700106E52325E02424F8E6FE08E6643D4A
:10017E004E700BE52325E02408F8E4F608F62097E8
:10018E0010120A3A20970A0522E52264027002F53F
:02019E0022221B
:10051300E4FBFA74462BF8E66521703974392BF83D
:10052300E665207030EB25E02424F8E6FE08E6FFBC
:10053300D3E51F9FE49E501DAF1DEF64066016EFC9
:1005430064076011744C2BF8E6700AD2B07F50FE3A
:10055300120A3E8002C2B00BBB00010AEB640A4AD6
:1005630070B1E4FBFA74492BF8E66521704C7443CF
:100573002BF8E665207043EB25E02424F8E6FE081B
:10058300E6FFD3E51F9FE49E5030AF1DEF64066086
:1005930029EF64076024D2B07F507E00120A3EEB3D
:1005A30025E02408F8C000E6FE08E6C3951FFFEE29
:1005B3009400D000F608A6078002C2B00BBB00016E
:0705C3000AEB640A4A709E76
:0105CA00220E
:100A7A007F801205CB12065A7FC01205CB7F207EDB
:040A8A000002065E02
:1008DF00120999120A8E7FC87E00120A3EC2B020FA
:1008EF009010120A3A20900A0538E5386403700216
:1008FF00F538E538FB7A007008D2AFD2A9D28C80D8
:10090F000FEB64014A700EC2AFC2A9C28C12086C01
:10091F001202DE801BE53864027015D2AFD2A9D265
:10092F008C12000EE52270051201A0800312041232
:05093F0012051380AA5F
:03000B00020A10D6
:100A1000C0E0C0F0C083C082C0D0758C3C758AAF86
:100A2000050EE50E64147007051FF50E1209DBD0E4
:0A0A3000D0D082D083D0F0D0E032A5
:100681000208DFE493A3F8E493A34003F68001F2A8
:1006910008DFF48029E493A3F85407240CC8C3337A
:1006A100C4540F4420C8834004F456800146F6DF49
:1006B100E4800B010204081020408090077FE47E53
:1006C100019360BCA3FF543F30E509541FFEE4933E
:1006D100A360010ECF54C025E060A840B8E493A305
:1006E100FAE493A3F8E493A3C8C582C8CAC583CA30
:1006F100F0A3C8C582C8CAC583CADFE9DEE780BEE8
:0107F5000003
:10094400BC000BBE0029EF8DF084FFADF022E4CC97
:10095400F875F008EF2FFFEE33FEEC33FCEE9DEC60
:10096400984005FCEE9DFE0FD5F0E9E4CEFD22EDA6
:10097400F8F5F0EE8420D21CFEADF075F008EF2FF0
:10098400FFED33FD4007985006D5F0F222C398FDE1
:050994000FD5F0EA227E
:00000001FF
